:020000040800F2
:10000000680800203D170008411500084315000846
:10001000471500084B1500084F15000800000000A8
:100020000000000000000000000000005315000860
:100030005515000800000000571500085915000864
:10004000571700085717000857170008DD9D0008CC
:1000500057170008571700085717000857170008C8
:1000600057170008571700085717000857170008B8
:1000700057170008571700085717000857170008A8
:100080005717000857170008571700085717000898
:100090005717000857170008571700085717000888
:1000A0005717000857170008571700085717000878
:1000B0005717000857170008571700085717000868
:1000C0005717000857170008571700085717000858
:1000D00057170008C32700085717000857170008CC
:1000E0005717000857170008571700085717000838
:1000F0005717000857170008571700085717000828
:100100005717000857170008571700085717000817
:100110005717000857170008571700085717000807
:1001200057170008571700085717000857170008F7
:1001300000F002F800F045F80AA090E8000C8244B4
:100140008344AAF10107DA4501D100F03AF8AFF291
:10015000090EBAE80F0013F0010F18BFFB1A43F0A5
:100160000103184718CA000038CA0000103A24BF1B
:1001700078C878C1FAD8520724BF30C830C144BF0C
:1001800004680C607047000000230024002500264E
:10019000103A28BF78C1FBD8520728BF30C148BFEA
:1001A0000B607047642909F03987782909F0728754
:1001B00073290AF07280002070471FB51FBD10B56B
:1001C00010BD0AF08DF81146FFF7F7FF01F091F925
:1001D0000AF0ABF803B4FFF7F2FF03BC02F096FAA3
:1001E0002DE9F0410746884615461E46AE4201DD20
:1001F000BDE8F081002407E0281BC2B24146384622
:1002000009F094F8601CC4B2B442F5DB00BFEFE71C
:1002100098B0FE480078FE490870FC484078FD49D7
:100220000870FA488078FC4908700020FB49087083
:10023000FB490870FB4908700120FB490870FB4925
:10024000087001F054B9F848007800286BD0F848DD
:1002500000880090F74840881390F6480088129074
:10026000024600210846139B08F029FFF2A0102146
:10027000CDE90010EF480088139000EBD0704010DB
:10028000503880B20B46C8224621129009F0E2F99C
:10029000EFA01021CDE90010E6480088139000EB94
:1002A000D0704010103880B20B46C82296211290B0
:1002B00009F0D0F9E8A01021CDE90010DD48008850
:1002C000139000EBD0704010203880B20B46C8224B
:1002D000FA21129009F0BEF9E2480088149047F61E
:1002E0007C50E0490880E04916980968401A64216A
:1002F0004843DDE91521891AB0FBF1F06421B0FB18
:10030000F1F0C7490870CB480088139000EBD0701B
:10031000C0F3470002233222AC211290FFF760FFA6
:10032000D04914980880B9480078B9490870B7488E
:100330004078B8490870B5488078B7490870B54822
:1003400000780A2806DAB3480278C8A1C84809F03C
:10035000F3FD05E0AF480278C6A1C54809F0ECFD01
:10036000AB4800780A2806DAA9480278BFA1C2483B
:1003700009F0E2FD05E0A6480278BEA1BE4809F0FA
:10038000DBFDA54800780A2806DAA3480278B7A161
:10039000BA4809F0D1FD05E09F480278B5A1B748F9
:1003A00009F0CAFD9A4800784FF4616148439949C1
:1003B0000978C1EB011100EB8100974909780844E5
:1003C000A94908609348007896490978884203D182
:1003D0009548007800287DD00020179016E0A849A5
:1003E000179851F82000A049096888420AD9A44901
:1003F000179851F8200016901798401E51F82000C9
:10040000159006E01798401CC0B2179017981D2849
:10041000E5DB00BF8548007888B1934801681598EE
:10042000081A64214843DDE91521891AB0FBF1F06F
:10043000024694A11390954809F07EFD0CE08A498C
:1004400016980968401A3C21B0FBF1F0024690A1D1
:1004500013908E4809F070FD8C481021CDE90010F2
:1004600074480088139000EBD07040100C3880B2B4
:100470000B46C822BE21129009F0ECF87F487C4B55
:100480007D4A84A10090864809F056FD84481021D9
:10049000CDE9001067480088139000EBD070401041
:1004A000203880B20B46C8229621129009F0D2F86B
:1004B0005648C07959490978884202D15A4800788B
:1004C00030B35248C07900905048807913904F481B
:1004D000808800E01FE01290024672A17448139BCE
:1004E00009F02AFD72481021CDE90010514800881A
:1004F000139000EBD0704010203880B20B46C82219
:10050000AA21129009F0A6F84048C0794349087022
:1005100000204549087067484068139000201399EF
:100520008847644890F8200000F08000002800F020
:10053000D98740480088129000EBD07040102038D6
:100540005C498989884280F2A1873A4800881390E3
:1005500000EBD0704010A83056498989884240F39A
:1005600095875448C08AE628F9DD5248C08AB0F51C
:100570008F7FE8DA2E48008800902E48408813903C
:100580002C4800881290024600210846139B08F070
:1005900096FD31A01021CDE9001026480088139067
:1005A00000EBD0704010203880B20B46C8224621A4
:1005B000129009F04FF840A01021CDE900101D481D
:1005C0000088139000EBD0704010303880B20B469A
:1005D000C8229621129009F03DF83BA01021CDE9E8
:1005E000001014480088139000EBD07040102038A1
:1005F00080B20B46C822BE21129009F02BF835A01C
:100600001021CDE900100B48008867E004010020AC
:100610000000002001000020020000200300002054
:100620000A00002008000020090000200B00002024
:10063000FE000020F40100205374657068616E278D
:10064000732054696E7920436C6F636B0000000067
:1006500032303A303000000053657474696E67734D
:1006600000000000FC000020040000203025640091
:100670000C000020256400000F0000201200002064
:10068000180000202564252500000000150000202A
:1006900025646D0025733A25733A25730000000028
:1006A0000E01002025642D25642D25640000000026
:1006B0001D010020C00000204368616E6765207442
:1006C00068656D65000000005365742044617465C1
:1006D000000000004261636B00000000139000EB1B
:1006E000D0704010103880B20B46C822FA21129008
:1006F00008F0B0FF0CE0F848406813900020139910
:100700008847F54890F8200000F0800000B900E02C
:10071000F1E700BFEDE3F048406813900020139923
:100720008847ED4890F8200000F0800000287BD03A
:10073000EA480088129000EBD07040102038E6495B
:100740008989884271DAE5480088139000EBD070FF
:100750004010A830E0498989884266DDDE48C08AB9
:10076000AA28FADDDC48C08AE228EBDADC48808877
:100770001390DB4880791290D948C0791190D848FD
:1007800000781090D64840780F90D54880780E9029
:10079000D44800880090D14840880590CF48008810
:1007A0000490024600210846059B08F088FCCEA074
:1007B0001021CDE90010C9480088059000EBD070E9
:1007C0004010103880B20B46C8226421049008F013
:1007D00041FFAFF2601106A8139A09F0ADFB06A81D
:1007E0001021CDE90010BD480088059000EBD070C5
:1007F0004010103880B20B46C8229621049008F0B1
:1008000029FFBBA01021CDE90010B4480088059055
:1008100000EBD0704010103880B20B46C822FA218D
:10082000049008F017FF0EE0F7E3F7E3AA484068EA
:100830000590002005998847A74890F8200000F00F
:10084000800000B900E0F1E700BF6FE0A248406817
:1008500005900020059988479F4890F8200000F0F7
:10086000800000285ED09D480088049000EBD07086
:100870004010103898498989884214DA97480088CE
:10088000059000EBD0704010B830934989898842B8
:1008900009DD9148C08AE62805DD8F48C08AB0F599
:1008A0008F7F00DA43E08D480088059000EBD07020
:1008B00040108949898988420EDD8748C08AC82846
:1008C0000ADA1398401E80B240F2B2711390884247
:1008D0000CDC481C139009E01398401C80B240F6D1
:1008E00034011390884201DB481E1390AFF27C2143
:1008F00006A8139A09F020FB06A81021CDE90010E4
:1009000076480088059000EBD0704010103880B217
:100910000B46C8229621049008F09CFE642001F04A
:10092000C8FE03E01E2001F0C4FE00BF8EE700BF3A
:100930006C480088009069484088059067480088A6
:100940000490024600210846059B08F0B8FB6AA007
:100950001021CDE9001061480088059000EBD070AF
:100960004010143880B20B46C8226421049008F06D
:1009700071FEAFF2003106A8129A09F0DDFA06A85E
:100980001021CDE9001055480088059000EBD0708B
:100990004010083880B20B46C8229621049008F017
:1009A00059FE53A01021CDE900104C480088059055
:1009B00000EBD0704010103880B20B46C822FA21EC
:1009C000049008F047FE0CE0434840680590002082
:1009D00005998847404890F8200000F0800000B951
:1009E00000E0F1E700BF75E03B484068059000205B
:1009F00005998847384890F8200000F08000B0B38F
:100A000036480088049000EBD0704010103832490E
:100A10008989884214DA31480088059000EBD0704B
:100A20004010B8302C498989884209DD2A48C08A9B
:100A3000E62805DD2848C08AB0F58F7F00DA5FE040
:100A400026480088059000EBD07040102249898923
:100A500088420DDD2048C08AC82809DA1298401E55
:100A600080B2129001280BDA0C20129008E02DE0E1
:100A70001298401C80B212900C2801DD01201290C7
:100A800012980A2806DAAFF21C4106A8129A09F059
:100A900053FA05E0AFF2244106A8129A09F04CFA85
:100AA00006A81021CDE900100C480088059000EB45
:100AB000D0704010083880B20B46C82296210490AE
:100AC00008F0C8FD642001F0F4FD03E01E2001F0F1
:100AD000F0FD00BF88E70000C0000020F401002006
:100AE00004010020FE000020596561720000000032
:100AF0004E657874000000004D6F6E746800000051
:100B000000BFFC4800880090FB4840880590FA48E8
:100B100000880490024600210846059B08F0CFFAA1
:100B2000F6A01021CDE90010F3480088059000EBF5
:100B3000D07040100C3880B20B46C822642104905B
:100B400008F088FDAFF2D44106A8119A09F0F4F933
:100B500006A81021CDE90010E7480088059000EBB9
:100B6000D0704010083880B20B46C82296210490FD
:100B700008F070FDAFF288001021CDE90010DE48CA
:100B80000088059000EBD0704010103880B20B4602
:100B9000C822FA21049008F05DFD0CE0D8484068B6
:100BA0000590002005998847D54890F8200000F06E
:100BB000800000B900E0F1E700BF75E0D048406870
:100BC0000590002005998847CD4890F8200000F056
:100BD0008000B0B3C8480088049000EBD07040108B
:100BE0001038C7498989884214DAC34800880590BB
:100BF00000EBD0704010B830C1498989884209DDC6
:100C0000BF48C08AE62805DDBD48C08AB0F58F7FA1
:100C100000DA4AE0B8480088059000EBD070401038
:100C2000B749898988420DDDB548C08AC82809DAE4
:100C30001198401E80B2119001280BDA1F201190EC
:100C400008E02DE01198401C80B211901F2801DDB2
:100C50000120119011980A2806DAAFF2F05106A887
:100C6000119A09F069F905E0AFF2F85106A8119A56
:100C700009F062F906A81021CDE900109E4800880D
:100C8000059000EBD0704010083880B20B46C822A7
:100C90009621049008F0DEFC642001F00AFD03E0D8
:100CA0001E2001F006FD00BF88E700BF91480088C4
:100CB00000909148408805908F4800880490024633
:100CC00000210846059B08F0FAF98EA11020CDE915
:100CD000000189480088059000EBD0704010103862
:100CE00080B21023C8226421049008F0B3FCAFF254
:100CF0007C6106A8109A09F01FF906A81021CDE919
:100D000000107D480088059000EBD0704010083836
:100D100080B20B46C8229621049008F09BFCAFF2EB
:100D200030211020CDE9000173480088059000EBC8
:100D3000D0704010103880B21023C822FA210490DD
:100D400008F088FC0CE06E4840680590002005998A
:100D500088476B4890F8200000F0800000B900E060
:100D6000F1E700BF76E066484068059000200599ED
:100D70008847634890F8200000F0800090B35E48F8
:100D80000088049000EBD070401010385C498989CD
:100D9000884214DA58480088059000EBD070401063
:100DA000B83057498989884209DD5548C08AE62804
:100DB00005DD5348C08AB0F58F7F00DA4BE04E481E
:100DC0000088059000EBD07040104D498989884219
:100DD0000EDD4B48C08AC8280ADA109818B91720C7
:100DE00010900DE032E01098401E80B2109007E0A5
:100DF0001098401C80B21090172801DD0020109040
:100E000010980A2806DAAFF29C7106A8109A09F029
:100E100093F805E0AFF2A47106A8109A09F08CF8D7
:100E200006A91020CDE9000133480088059000EBA9
:100E3000D0704010083880B21023C8229621049048
:100E400008F008FC642001F034FC03E01E2001F0EF
:100E500030FC00BF87E700BF264800880090264886
:100E600040880590244800880490024600210846E6
:100E7000059B08F024F925A01021CDE900101E489B
:100E80000088059000EBD0704010183880B20B46F7
:100E9000C8226421049008F0DDFBAFF6280106A803
:100EA0000F9A09F049F806A81021CDE90010124860
:100EB0000088059000EBD0704010083880B20B46D7
:100EC000C8229621049008F0C5FBAFF2DC30102157
:100ED000CDE9001008480088059000EBD070401064
:100EE000103880B20B46C822FA21049008F0B2FBF9
:100EF0001DE0C4E2FE000020F401002044617900FE
:100F0000C0000020486F7572000000004D696E75CA
:100F100074650000FE4840680590002005998847E8
:100F2000FB4890F8200000F0800000B900E0F1E7F5
:100F300000BF78E0F6484068059000200599884792
:100F4000F34890F8200000F0800090B3F14800884A
:100F5000049000EBD07040101038ED498989884228
:100F600014DAEC480088059000EBD0704010B830DF
:100F7000E7498989884209DDE548C08AE62805DD18
:100F8000E348C08AB0F58F7F00DA4DE0E148008881
:100F9000059000EBD0704010DD49898988420EDD54
:100FA000DB48C08AC8280ADA0F9818B93B200F908E
:100FB0000DE034E00F98401E80B20F9007E00F98CC
:100FC000401C80B20F903B2801DD00200F900F984D
:100FD0000A2806DAAFF66C1106A80F9A08F0ACFFE3
:100FE00005E0AFF6701106A80F9A08F0A5FF06A855
:100FF0001021CDE90010C7480088059000EBD070A3
:101000004010083880B20B46C8229621049008F0A0
:1010100021FB642001F04DFB05E02DE2D5E11E200F
:1010200001F047FB00BF85E700BFBB480088009088
:10103000B84840880590B7480088049002460021CF
:101040000846059B08F03BF8B4A01021CDE900103C
:10105000B0480088059000EBD0704010183880B27E
:101060000B46C8226421049008F0F4FAAFF6FC1194
:1010700006A80E9A08F060FF06A81021CDE900101E
:10108000A4480088059000EBD0704010083880B26A
:101090000B46C8229621049008F0DCFAAFF2B0505B
:1010A0001021CDE900109B480088059000EBD0701E
:1010B0004010103880B20B46C822FA21049008F084
:1010C000C9FA0CE0924840680590002005998847CD
:1010D0008F4890F8200000F0800000B900E0F1E7B0
:1010E00000BF76E08A48406805900020059988474F
:1010F000874890F8200000F0800090B38548008871
:10110000049000EBD07040101038814989898842E2
:1011100014DA80480088059000EBD0704010B83099
:101120007B498989884209DD7948C08AE62805DD3E
:101130007748C08AB0F58F7F00DA4BE075480088A9
:10114000059000EBD07041107148808981420EDD1E
:101150006F48C08AC8280ADA0E9818B93B200E904A
:101160000DE032E00E98401E80B20E9007E00E981F
:10117000401C80B20E903B2801DD00200E900E989E
:101180000A2806DAAFF61C3106A80E9A08F0D4FE3B
:1011900005E0AFF6203106A80E9A08F0CDFE06A9AC
:1011A0001020CDE900015B480088059000EBD0706D
:1011B0004010083880B21023C8229621049008F00D
:1011C00049FA642001F075FA03E01E2001F071FA7B
:1011D00000BF87E700BF5048008800904D48408816
:1011E00005904C4800880490024600210846059B63
:1011F00007F065FF4BA01021CDE90010454800889D
:10120000059000EBD0704010143880B20B46C82215
:101210006421049008F01EFA0EA80BC8119ACDE9BB
:101220000023CDE9021041A106A8DDE9123208F041
:1012300083FE06A91020CDE90001364800880590FC
:1012400000EBD0704010443880B21023C8229621A1
:10125000049008F0FFF93AA01021CDE900102D48C4
:101260000088059000EBD0704010083880B20B4623
:10127000C822E621049008F0EDF932A01021CDE952
:10128000001024480088059000EBD07040101838FA
:1012900080B20B46C8224FF48771049008F0DAF947
:1012A0000CE01B48406805900020059988471848C5
:1012B00090F8200000F0800000B900E0F1E700BFE6
:1012C00080E0134840680590002005998847104841
:1012D00090F8200000F08000C0B30E480088049011
:1012E00000EBD0704010083809498989884248DAF3
:1012F00008480088059000EBD0704010C0300449C9
:10130000898988423DDD0248C08ADC2839DD1EE03B
:10131000C0000020F4010020FE0000205365636F30
:101320006E640000537572653F00000025642D2532
:10133000642D25642025643A25643A256400000064
:101340004F4B000043616E63656C00003AE07648E5
:10135000C08AFF2815DC0E98C0B20F99C9B2CDE93A
:1013600000101098C0B205901198C0B20490129865
:10137000C0B203900146DDE90423139808F073FC22
:1013800021E06A480088049000EBD07040101838C3
:1013900065498989884215DA64480088059000EB20
:1013A000D0704010B0306049898988420ADD5E48BB
:1013B000C08AB0F5827F05DD5B48C08AB0F5947FB6
:1013C00000DA00E07DE700BF5BE05848008812903B
:1013D00000EBD070401030385349898988422BDAAD
:1013E00052480088139000EBD070401098304E495E
:1013F0008989884220DD4C48C08A82281CDD4A4801
:10140000C08ABA2818DA4A4800884FF6FF71884225
:101410000AD14848008838B90020454908804FF66D
:10142000FF704449088006E04FF6FF70404908808D
:1014300000204049088024E03C480088129000EBDE
:10144000D0704010303838498989884214DA3748DA
:101450000088139000EBD070401098303249898991
:10146000884209DD3048C08AE62805DD2E48C08A5A
:10147000B0F58F7F00DA04E01E2001F01AF9FFF7C3
:101480004AB900BF01202C49087030E02748008885
:10149000129000EBD070401032382349898988427D
:1014A00020DA22480088139000EBD07040103230D0
:1014B0001D498989884215DD1B48C08A7A2811DDBB
:1014C0001948C08ADE280DDA1C48007818B10020BF
:1014D0001A49087002E001201849087001201649D5
:1014E000087004E04FF47A7001F0E3F800BFFEF7F3
:1014F000AABE01F0A1F84FF4A06000F03FF94FF44C
:10150000165001F012F904F0CCF802F006FC4FF688
:10151000FF700749088000200649088008F0FFFB9B
:1015200008F029FBFEF774FEC0000020F401002043
:10153000FC000020FE000020090000200B0000201D
:10154000704700BFFEE700BFFEE700BFFEE700BF39
:10155000FEE7704770477047704700000CB50020E9
:10156000019000906C48006840F480306A4908603F
:1015700000BF6948006800F4003000900198401CEA
:101580000190009818B90198B0F5A06FF1D16248A8
:10159000006800F4003010B10120009001E000204C
:1015A00000900098012843D15C48006840F010008A
:1015B0005A4908600846006820F0030008600846A1
:1015C000006840F002000860534840685249486093
:1015D0000846406848600846406840F480604860BB
:1015E0000846406820F47C1048600846406840F493
:1015F000E81048600846006840F08070086000BF4E
:101600004548006800F000700028F9D04248406862
:1016100020F00300404948600846406840F002005E
:10162000486000BF3C48406800F00C000828F9D131
:101630000CBD10B5FFF792FF10BD10B5364800681D
:1016400040F00100344908600846406834490840C9
:101650003149486008460068324908402E49086010
:101660000846006820F4802008600846406820F49E
:10167000FE0048604FF41F008860FFF7DAFF4FF06C
:1016800000602949086010BD10B50021002000222B
:10169000214B5B6803F00C0121B1042906D0082915
:1016A00028D107E0214B224C236027E01F4B204C20
:1016B000236023E0184B5B6803F47010164B5B68E3
:1016C00003F48032022303EB904022B9194B4343C9
:1016D000174C23600DE0104B5B6803F4003323B11B
:1016E000144B4343124C236003E0104B4343104C14
:1016F000236003E00D4B0E4C236000BF00BF064B80
:101700005B68C3F303130C4CE15C094B1B68CB40D3
:10171000074C236010BD0000001002400020024072
:101720000000FFF8FFFFF6FE08ED00E000127A006F
:101730008C00002000093D009000002009488047EF
:1017400009480047FEE7FEE7FEE7FEE7FEE7FEE7A3
:10175000FEE7FEE7FEE7FEE704480549054A064BBB
:10176000704700003B1600083101000868020020A5
:101770006808002068040020680400203149014303
:10178000314A1160704770B5002100230F22C478E0
:1017900004B32D4C246804F4E064C4F5E064210A29
:1017A000C1F10403CA40447804FA03F18478144078
:1017B00021430901254C0678A155047804F01F0542
:1017C0000124AC4005786D11AD0005F1E025C5F8A8
:1017D000004109E0047804F01F050124AC401C4DD1
:1017E0000678761145F8264070BD1A4A0A40024331
:1017F000154B1B1F1A60704739B1134A121D12682E
:101800000243114B1B1D1A6006E00F4A121D12689D
:1018100082430D4B1B1D1A607047042808D14FF0FE
:10182000E021096941F004014FF0E022116107E075
:101830004FF0E021096921F004014FF0E02211612D
:10184000704700000000FA050CED00E000E400E045
:1018500080E100E080FFFF1F10B5012000F014FCC4
:10186000002000F011FC10BD2A490860704729498A
:10187000091F086070472749843108607047014696
:101880000020254A10884FF67F4210400843224A24
:1018900010807047014600201F4A10884FF6807262
:1018A000104008431C4A1080704708B5002200927F
:1018B000194A2C3A0092009A02440092009A116050
:1018C00008BD08B501460020009013482C38009050
:1018D0000098084400900098008808BD0D489C308E
:1018E0000068C0B270470C480830008840F0010022
:1018F00009490831088070470648A0300068C0B226
:10190000704705480830008840F00200024908315D
:101910000880704704860D422C6C004010B50446C8
:10192000CC48844208D10121042000F093FB00211F
:10193000042000F08FFB46E0C748844208D1012113
:10194000082000F087FB0021082000F083FB3AE02C
:10195000C248844208D10121102000F07BFB002105
:10196000102000F077FB2EE0BD48844208D1012111
:10197000202000F06FFB0021202000F06BFB22E014
:10198000B848844208D10121402000F063FB0021C7
:10199000402000F05FFB16E0B348844208D10121EB
:1019A000802000F057FB0021802000F053FB0AE06C
:1019B000AE48844207D10121801500F04BFB002185
:1019C000A01500F047FB10BD10B50121084600F03E
:1019D00041FB0021012000F03DFB10BD2DE9F0414D
:1019E000024600250026002000230024002791F84D
:1019F00003C00CF00F0591F803C00CF0100CBCF103
:101A0000000F03D091F802C04CEA050591F800C020
:101A1000BCF1000F31D0146800202BE04FF0010C16
:101A20000CFA00F3B1F800C00CEA03069E4220D184
:101A300083004FF00F0C0CFA03F7BC4305FA03FCCC
:101A40004CEA040491F803C0BCF1280F06D14FF012
:101A5000010C0CFA00FCC2F814C00AE091F803C0B3
:101A6000BCF1480F05D14FF0010C0CFA00FCC2F894
:101A700010C0401C0828D1D31460B1F800C0BCF1DC
:101A8000FF0F34DD546800202EE000F1080C4FF009
:101A9000010808FA0CF3B1F800C00CEA03069E42F4
:101AA00021D183004FF00F0C0CFA03F7BC4305FA69
:101AB00003FC4CEA040491F803C0BCF1280F05D1E3
:101AC00000F1080C08FA0CF8C2F8148091F803C071
:101AD000BCF1480F07D100F1080C4FF0010808FADB
:101AE0000CF8C2F81080401C0828CED35460BDE822
:101AF000F0814FF6FF710180022181700421C170D5
:101B000070470246002093680B400BB1012000E0B3
:101B1000002070470146886880B270470246002066
:101B2000D3680B400BB1012000E000207047014654
:101B3000C86880B2704701617047416170470AB15F
:101B4000016100E041617047C16070474FF480322D
:101B50000A438261816182618269826970470246BB
:101B60000020434B18684FF68073184040EA02107B
:101B700008433F4B186070473E49C8617047F0B555
:101B80000A46002300240021002500F00046B6F19B
:101B9000004F02D1364EF16901E0354E7168C0F355
:101BA000034583B200F44016B6F5401F08D121F07A
:101BB00070612F4E766826F070662D4F7E6012E0C1
:101BC00000F48016B6F5801F06D1032606FA05F448
:101BD000A14341F0706106E0460D360103FA06F6B6
:101BE000B14341F0706122B1460D360103FA06F6A9
:101BF000314300F00046B6F1004F02D11C4EF161B6
:101C000001E01B4E7160F0BD30B500228B071C0F48
:101C10000F2303FA04F2164B08338C1053F82430C8
:101C20009343134C08348D1044F8253023468C1010
:101C300053F824308C07240F00FA04F423430C4C8F
:101C400008348D1044F8253030BD0A49DC31086075
:101C50007047000000080140000C014000100140E6
:101C60000014014000180140001C01400020014008
:101C7000000001400000204210B50121080700F0DB
:101C8000F6F900214FF0805000F0F1F910BD2A491B
:101C90000862704728490861704701460020274ABA
:101CA000106820F0E0000843106070472249A0311E
:101CB0000860704710B502460020204B186820F0DD
:101CC0000300104318601E4B1B6843F004031C4CB8
:101CD0002360012901D130BF00E020BF184B1B68F1
:101CE00023F00403164C236010BD1448006840F034
:101CF0000400124908600846006840F002000860CD
:101D00000F48006840F004000D49086000BF00BFA4
:101D100030BF704701460020084A52680A400AB1A5
:101D2000012000E0002070470449096841EA800171
:101D3000024A11607047000000000E42007000402F
:101D400010ED00E0DF48006840F00100DD49086068
:101D500008464068DC490840DA494860084600689F
:101D6000DA490840D74908600846006820F4802016
:101D700008600846406820F4FE0048604FF41F00E9
:101D800088607047CF49096821F48031CD4A1160DD
:101D90001146096821F480211160B0F5803F03D01D
:101DA000B0F5802F0ED106E0C649096841F48031B4
:101DB000C44A116007E0C349096841F4A021C14A3F
:101DC000116000E000BF00BF704710B5014600225F
:101DD000002300204A11012A02D1BA4C236806E0F0
:101DE000022A02D1B74C236A01E0B64C636A01F0C3
:101DF0001F02012494401C400CB1012000E000208F
:101E000010BD38B5002000900024002500BF31200F
:101E1000FFF7DBFF05460098401C00900098B0F5E6
:101E2000A06F01D0002DF2D03120FFF7CEFF08B116
:101E3000012400E00024204638BD01460020A14ACC
:101E4000106820F0F80040EAC10010607047A04917
:101E500008607047024600209A4B586820F47C10B6
:101E600042EA01031843974B586070479849086647
:101E7000704701460020934A506820F00300084351
:101E8000506070478F48406800F00C007047014672
:101E900000208C4A506820F0F000084350607047E2
:101EA00001460020874A506820F4E06008435060F3
:101EB000704701460020834A506820F4605040EA91
:101EC000C1005060704729B17E4A527A02437D4B6F
:101ED0005A7204E07B4A527A82437A4B5A727047B4
:101EE0007B49D8310860704701460020754A506828
:101EF00020F440400843506070470021714A20326E
:101F00001170704A82F82010012802D004280AD1EA
:101F100004E001216B4A2032117005E00521694A75
:101F20002032117000E000BF00BF704769490860AF
:101F300070476449096A0143624A11627047654902
:101F400044390860704730B5002100220024002386
:101F50005C4D6D6805F00C0121B1042905D00829FC
:101F600023D105E05C4D056022E05B4D05601FE07C
:101F7000544D6D6805F47012524D6D6805F480344F
:101F8000022505EB92421CB9544D554305600BE008
:101F90004C4D6D6805F400351DB1504D554305603D
:101FA00002E04D4D5543056002E04B4D056000BF1A
:101FB00000BF444D6D6805F0F0010909484D6B5CA8
:101FC0000568DD4045603F4D6D6805F4E061090A34
:101FD000434D6B5C4568DD4085603A4D6D6805F4A6
:101FE0006051C90A3E4D6B5C4568DD40C560354DAA
:101FF0006D6805F44041890B3A4D6B5CC568B5FBD3
:10200000F3F5056130BD29B12E4A526902432D4BCB
:102010005A6104E02B4A526982432A4B5A61704745
:1020200029B1284A92690243264B9A6104E0254A65
:1020300092698243234B9A61704729B1214AD26940
:102040000243204BDA6104E01E4AD26982431D4BF1
:10205000DA61704729B11B4AD2680243194BDA6032
:1020600004E0184AD2688243164BDA60704729B1FF
:10207000144A12690243134B1A6104E0114A1269AF
:102080008243104B1A61704712494039086070470B
:102090000F49C86470470B49C87170470948406AC6
:1020A00040F0807007494862704701460020054AA9
:1020B00092680A400AB1012000E0002070470149FF
:1020C00088727047001002400000FFF8FFFFF6FE24
:1020D000000042428004424200127A0000093D00A2
:1020E000A0000020B000002029B1504A128802430D
:1020F0004E4B1A8004E04D4A128882434B4B1A80A3
:1021000070474A48001D008840F010004749091DEB
:10211000088070474548001D00884FF6EF71084061
:102120004249091D08807047002140481C30018841
:10213000001F008841EA0040704700B50246FFF7E3
:10214000E0FF100C394918310880091D0A80FFF79B
:10215000E1FF00BD00B50246FFF7D3FFC2F3034025
:10216000324908310880091D0A80FFF7D3FF00BDFE
:1021700000B50246FFF7C5FF100C2C49203108803E
:10218000091D0A80FFF7C6FF00BD00202749103156
:1021900009880907080B2549143109880843704745
:1021A00000BF2248001D008800F020000028F8D061
:1021B00070471E48001D00884FF6F77108401B4904
:1021C000091D088000BF1948001D008800F00800A4
:1021D0000028F8D0704701460020144A121D1288CA
:1021E0000A400AB1012000E0002070470F49091D94
:1021F000098881430D4A121D118070470146002055
:102200000A4A121D12880A40D0B2084A12880A40AF
:1022100012B108B1012000E0002070470349091DF8
:1022200009888143014A121D11807047002800402F
:1022300010B50446FB48844209D101218803FFF709
:1022400009FF00214FF48040FFF704FF32E0F64819
:10225000844209D101214804FFF709FF00214FF40E
:102260000030FFF704FF25E0F048844209D1012146
:102270008804FFF7FCFE00214FF48020FFF7F7FEF3
:1022800018E0EB48844209D10121C804FFF7EFFEB2
:1022900000214FF40020FFF7EAFE0BE0E5488442FE
:1022A00008D101210805FFF7E2FE00214FF480105C
:1022B000FFF7DDFE10BD2DE9F04786B005460E465E
:1022C0000024A24600BFA1460027B08900B100BF8C
:1022D0002F462C8A4CF6FF700440F08804432C8271
:1022E000AC894EF6F3100440B088318908437189F7
:1022F00008430443AC81AC8A4FF6FF400440B089E8
:102300000443AC8201A8FFF71EFEC648874202D1F3
:10231000DDF810A001E0DDF80CA0A88900F4004071
:1023200040B10AEBCA0000EB0A1031684900B0FB6B
:10233000F1F807E00AEBCA0000EB0A1031688900E7
:10234000B0FBF1F86420B8FBF0F00401200964212F
:1023500001FB1089A88900F4004040B1322000EB55
:10236000C900B0FBF1F000F00700044308E03220A0
:1023700000EB09106421B0FBF1F000F00F00044302
:102380002C8106B0BDE8F0874FF4165101600021A2
:102390008180C18001810C214181002181817047B0
:1023A00010B502460020108A4FF2FF0318400B8838
:1023B0004C8823438C882343CC88234318431082C2
:1023C00010BD0021018041808180C180704721B112
:1023D000828942F40052828104E082894DF6FF73C3
:1023E0001A4082817047F0B503460024002600257C
:1023F000002040F66A17B94200D100BF1846C1F369
:10240000421401F01F06012707FA06F5012C01D13D
:102410000C3004E0022C01D1103000E014301AB16D
:1024200007682F43076002E00768AF430760F0BD0D
:102430001AB1838A0B43838202E0838A8B438382AF
:102440007047028A4FF6F0731A400282028A0A43EA
:102450000282704782894FF2FF731A40828182891B
:102460000A438281704721B1828942F0020282814F
:1024700004E082894FF6FD731A4082817047028A18
:102480004FF6DF731A400282028A0A4302827047C3
:1024900021B1028A42F48042028204E0028A4BF6B1
:1024A000FF731A4002827047C1F3080282807047AE
:1024B00001468888C0F308007047818941F0010116
:1024C00081817047028BD2B20283028B42EA0122E1
:1024D00002837047028B02F47F420283028B0A431D
:1024E0000283704721B1828A42F02002828204E096
:1024F000828A4FF6DF731A408282704721B1828A46
:1025000042F01002828204E0828A4FF6EF731A4092
:102510008282704721B1828A42F00802828204E0FE
:10252000828A4FF6F7731A408282704721B18289FE
:1025300042F40042828103E08289C2F30E0282816A
:10254000704721B1828A42F40062828204E0828A6A
:102550004FF2FF731A4082827047828A4FF6FB73F4
:102560001A408282828A0A438282704721B1828A1B
:1025700042F00202828204E0828A4FF6FD731A4022
:102580008282704702460020B1F5007F00D100BF73
:1025900013880B400BB1012000E00020704701F4CC
:1025A0000072B2F5007F00D100BFCA4302807047BD
:1025B00070B50246002400230025002040F66A166C
:1025C000B14200D100BFC1F3421501F01F03012643
:1025D00006FA03F3012D02D19689334006E0022D5D
:1025E00002D1168A334001E0968A33400C1201264C
:1025F00006FA04F41688344013B10CB1012000E04F
:10260000002070BD10B50022002340F66A14A142DC
:1026100000D100BF0A1201249440A3B2DC4304801D
:1026200010BD000000380140004400400048004058
:10263000004C00400050004010B56FF00400FFF760
:10264000ECF82E4800682E49B0FBF1F02D490870D7
:102650000846007800EB4001C1EBC0104FF6FF7157
:1026600001EAC0002849088010BD0146254A1278B9
:102670004A434FF0E0235A6100229A611A461269D8
:1026800042F001021A6100BF4FF0E022106900F031
:1026900001021AB100F48032002AF5D04FF0E02296
:1026A000126922F001024FF0E0231A6100229A61C0
:1026B00070470146144A12884A434FF0E0235A619A
:1026C00000229A611A46126942F001021A6100BFA3
:1026D0004FF0E022106900F001021AB100F48032DC
:1026E000002AF5D04FF0E022126922F001024FF0EB
:1026F000E0231A6100229A61704700008C000020DC
:1027000000127A00B4000020B6000020014600BF8D
:10271000704700BF494A128802F04002002AF9D0EF
:10272000C2B2464B1B1D1A80704710B586B00446D6
:10273000012144F20400FFF773FC4FF40070ADF880
:10274000140003208DF8160018208DF8170005A935
:102750003B48FFF743F94FF48060ADF814000420C4
:102760008DF8170005A93648FFF738F925208DF8B0
:10277000000003208DF801008DF8020001208DF883
:1027800003006846FEF7FFFF01940020ADF8080043
:10279000ADF80A00ADF80C00ADF810000C20ADF853
:1027A0000E0001A92548FFF786FD012240F22551C0
:1027B0002248FFF718FE01212048FFF708FE06B067
:1027C00010BD10B540F225511C48FFF7F1FE10B3C3
:1027D0001A48FFF76DFEC4B21A48008800F40040A2
:1027E000C8B91848008800F4804060B10A2C03D0B2
:1027F00000201449088020E01248008840F400407E
:102800001049088019E00D2C06D10E48008840F4CC
:1028100080400C49088010E00A480088C0F30D0091
:1028200009490C5407480088401C0649088008469E
:102830000088C72801DD0020088010BD0038014055
:1028400000080140BC0000202C01002010B50A2027
:10285000FFF70BFF10BD9148806940F010008F49D1
:1028600088618F4800684FF20F0188438C490860E7
:102870000846006843F20301084389490860084696
:10288000C06840F00200C8600846C06840F0080018
:10289000C860704710B58248006820F470408049D5
:1028A00008600846006840F44050086001207D49F7
:1028B00008607D49C1F88001FFF7C8FF0020794911
:1028C0000860FFF7C3FF00207749C1F8800110BD01
:1028D00010B57348006820F47040714908600846DC
:1028E000006840F44050086000206E490C390860D0
:1028F0006D49C1F88C01FFF7A9FF012069490C3926
:102900000860FFF7A3FF01206749C1F88C0110BDE3
:1029100010B500246248006820F4704060490860E7
:102920000846006840F40040086001205D490860E6
:10293000FFF79BFE01205C49C1F88001FFF795FE7F
:1029400007E0601CC4B2FA2C03DDFFF7C1FF0120D1
:1029500010BD5448803800680028F2D151490C3924
:10296000086000BFF4E710B500204E490C3908603C
:102970004B48006820F470404949086008460068E8
:1029800040F44050086000204749C1F88C01FFF72F
:102990005DFF012043490C390860FFF757FF002015
:1029A0004149C1F8800110BD10B500203D490C39E6
:1029B00008603B48006820F47040394908600846C8
:1029C000006840F44050086001203749C1F88C018C
:1029D000FFF73CFF012033490C390860FFF736FF51
:1029E00000203149C1F8800110BD70B504462C4863
:1029F000006820F470402A4908600846006840F4E6
:102A000040500860002027490C390860002512E07A
:102A1000E009244908606006040E01202249C1F83B
:102A20008001FFF713FF00201E490C390860FFF7F3
:102A30000DFF681CC5B2082DEADB70BD70B50546F8
:102A400000241748006820F47040154908600846C3
:102A5000006840F400400860002614E0002011499E
:102A60000C3908601E20FFF700FE01200E49C1F856
:102A700080016006040E0B488038006808B1601CB5
:102A8000C4B2701CC6B2082EE8DB15B9FFF78CFF84
:102A900001E0FFF768FF204670BD00000010024013
:102AA000001001408C012242000022422DE9F04139
:102AB00004460E4617464FF00008FFF7EBFE2820AD
:102AC000FFF793FFFFF724FF2012FFF78EFFFFF7BA
:102AD0001FFFE0B2FFF789FFFFF71AFF00250BE0A9
:102AE000705DFFF782FFFFF713FF8046B8F1000F1C
:102AF00000D003E0681CC5B2BD42F1DB00BFFFF7A8
:102B0000E7FE4046BDE8F08138B5054600240020C8
:102B10008DF800008DF8015000BF09E09DF800001D
:102B2000D049095D0844C0B28DF80000601CC4B2F1
:102B3000B82CF3D39DF80000C043401CC0B28DF800
:102B40000000B822C74948F24700FFF7AFFF022252
:102B5000694648F2FF00FFF7A9FF002038BD2DE9C4
:102B6000F04105460F461646FFF794FE2820FFF772
:102B70003CFFFFF7CDFE2812FFF737FFFFF7C8FE37
:102B8000E8B2FFF732FFFFF7C3FEFFF783FE29200D
:102B9000FFF72BFFFFF7BCFE00240BE0711EA142E4
:102BA00001D0012100E000210846FFF747FF38551A
:102BB000601CC4B2B442F1DBFFF78AFEBDE8F081CD
:102BC0001CB5A948806940F01000A7498861A74852
:102BD000006820F0F000A54908600846006840F051
:102BE000300008600846C06840F00200C86008462F
:102BF000406820F4700048600846406840F4401087
:102C000048600846C06840F40050C860FFF723FEE3
:102C10000020974908600A20FFF74BFD01209549E5
:102C2000C1F8B4010A20FFF744FD9048006820F085
:102C3000F0008E4908600846006840F08000086097
:102C40000846C06820F00200C8606420FFF731FD2C
:102C50000422694648F24010FFF781FF00208DF8FA
:102C60000400694684A007F05BF986A1684607F076
:102C70003DFA40BB02208DF800000122694648F26F
:102C80004000FFF713FF0122694648F24700FFF7B3
:102C900066FF9DF80000602807DA9DF800107BA011
:102CA00007F03EF90120FFF72FFF0A20FFF701FD93
:102CB00000208DF800000122694648F24000FFF72D
:102CC000F5FE00201CBD0120FCE731B582B00024D8
:102CD000002573480078401C714908700846007848
:102CE0000A2190FBF1F201FB120018B16C48007848
:102CF0000A287DDA012202A948F24E10FFF72FFFC1
:102D00009DF8080000F00F0000286BD09DF8080027
:102D100000F00F00062865DA9DF8080000F00F01AA
:102D2000FF208840C0B200909DF80000C043C0B2B0
:102D300040F0C0005B4981F82000002444E059487D
:102D400090F820000121A140084020B3564931F8F5
:102D50001400042201A9FFF702FF524890F8300046
:102D600000F00100C0B19DF804009DF8051000EBD3
:102D7000012081B24B48163020F814109DF806004F
:102D80009DF8071000EB0120C0F5487081B245485E
:102D90000C3020F8141015E09DF804009DF8051083
:102DA00000EB012081B23F480C3020F814109DF850
:102DB00006009DF8071000EB012081B2394816305B
:102DC00020F81410601CC4B2052CB8DB012535486E
:102DD000808920B93348C08A08B9002002900020B9
:102DE0002F4908709DF8080000F0800000B100E055
:102DF0000DE09DF8080000F00F00062807DA00201B
:102E000000900122694648F24E10FFF74FFE9DF8F0
:102E1000080000F08F0080281AD1224890F8200086
:102E200000F0800040B11F4890F8200020F08000A2
:102E30001C4981F820000BE04FF6FF70194988818A
:102E4000C882084690F8200000F0E00081F82000D9
:102E500013480078F02802DD0A201149087028463E
:102E60003EBD000026B200080010024000100140E4
:102E7000B4012242000022424354502049443A25E2
:102E8000730D0A0039313437000000004465666173
:102E9000756C74205665723A25640D0A00000000B6
:102EA000BE000020C0000020DEB200082DE9F04185
:102EB00004460E4617464FF00008FFF7EBFCB22021
:102EC000FFF793FDFFF724FD2012FFF78EFDFFF7BC
:102ED0001FFDE0B2FFF789FDFFF71AFD00250BE0AB
:102EE000705DFFF782FDFFF713FD8046B8F1000F1C
:102EF00000D003E0681CC5B2BD42F1DB00BFFFF7A4
:102F0000E7FC4046BDE8F0812DE9F04105460F465B
:102F10001646FFF7BFFCB220FFF767FDFFF7F8FC8E
:102F20002812FFF762FDFFF7F3FCE8B2FFF75DFD43
:102F3000FFF7EEFCFFF7AEFCB320FFF756FDFFF7FF
:102F4000E7FC00240BE0711EA14201D0012100E04A
:102F500000210846FFF772FD3855601CC4B2B44228
:102F6000F1DBFFF7B5FCBDE8F08138B50446002081
:102F700000900CB180200090012269464FF450600F
:102F8000FFF794FF38BD1CB50020019001211020EF
:102F9000FFF746F80220ADF8000048208DF8030046
:102FA00003208DF8020069468D48FEF717FD0221C7
:102FB0008B48FEF7C0FD4FF40050ADF80000102024
:102FC0008DF8030069468648FEF708FD4FF400516E
:102FD0008348FEF7B0FDFFF73EFC00208149086002
:102FE0006420FFF766FB01207F49C1F8B40164202B
:102FF000FFF75FFB0120FFF7B8FF012201A94FF4A3
:103000005060FFF781FF9DF8041078A006F088FF5C
:103010009DF8040000F0800008B100201CBD0120D4
:10302000FCE72DE9F14F82B04FF0000AD346724819
:103030000078401C70490870084600780A2190FB0F
:10304000F1F201FB120018B16B4800780A287DDA12
:10305000012202A90020FFF757FF9DF8080000F0A9
:103060001F00002872D09DF8080000F01F0040F0FB
:10307000C000624981F820004FF0000A76E05F4806
:1030800090F82000012101FA0AF10840002869D0D7
:103090005B4931F81A00042201A9FFF735FF5748B0
:1030A00090F8300000F0010078B39DF807109DF80B
:1030B000062001EB022007F046FA0646514A524B21
:1030C00007F0A8FA044607F011FA81B24B4816300F
:1030D00020F81A109DF805109DF8042001EB02203D
:1030E00007F031FA0646494A494B07F093FA804601
:1030F0000022484B07F0C2FB044607F0F7F981B203
:103100003E480C3020F81A102CE0FFE79DF807101D
:103110009DF8062001EB022007F015FA0646394A11
:10312000394B07F077FA044607F0E0F981B23348EB
:103130000C3020F81A109DF805109DF8042001EBC2
:10314000022007F000FA0646304A00E01EE0304B4D
:1031500007F060FA044607F0C9F981B22748163033
:1031600020F81A100AF1010000F0FF0ABAF1050F69
:1031700085DB4FF0010B2148808920B91F48C08AA8
:1031800008B90020029000201B4908709DF8080033
:1031900000F01F00D0B9194890F8200000F080001E
:1031A00040B1164890F8200020F08000134981F8C3
:1031B00020000BE04FF6FF7010498881C882084656
:1031C00090F8200000F0E00081F820000A48007824
:1031D000F02802DD0A20084908705846BDE8FE8F35
:1031E00000100140B401224200002242435450200A
:1031F00049443A25780D0A00BF000020C000002095
:10320000E8B200087B14AE47E17AD43FD881734618
:1032100094F6D23F00008940002100BF15E000F085
:1032200080021AB10122FE4B1A6002E00022FC4B20
:103230001A604206100E0022F94B0C3B1A60012264
:10324000F84BC3F880214A1CD1B20829E7DB70474C
:1032500070B50646002500240020F1490C390860AD
:10326000F049C1F88C01EE49283108603046FFF77B
:10327000D3FF0620FFF7F9F90020EA49C1F88001E1
:103280000120FFF7F2F90120E5490C390860002020
:10329000E449C1F8800100BF13E04FF6FF7000EA77
:1032A00044040020DE490C3908600120DD49C1F8E2
:1032B0008001DB488438006808B1601C84B2681C57
:1032C000C5B2102DE9DB24110120D5492831086051
:1032D000204670BD2DE9FE4380460027002406E00D
:1032E0004046FFF7B5FF2DF81400601C84B2052C92
:1032F000F6DB002416E0601C85B20FE03DF81400F8
:103300003DF81510884207DD3DF814603DF81500C2
:103310002DF814002DF81560681C85B2052DEDDB25
:10332000601C84B2042CE6DB0027012405E03DF894
:103330001400384487B2601C84B2042CF7DB0320ED
:1033400097FBF0F086B23046BDE8FE832DE9F041F0
:1033500004460D46B4480078FFF7BCFF0646B34864
:103360000078FFF7B7FF074626802F800120BDE8D1
:10337000F0817FB504460D4602A903A8FFF7E6FFDA
:10338000064616B9002004B070BD694601A8FFF7D3
:10339000DDFF06460EB90020F5E7BDF80400BDF8D4
:1033A0000C10884206DCBDF80C10BDF80400323069
:1033B00081420CDBBDF80C00BDF80410884236DCFD
:1033C000BDF80410BDF80C00323081422FDABDF890
:1033D0000000BDF80810884206DCBDF80810BDF8F2
:1033E0000000323081420CDBBDF80800BDF800104F
:1033F00088421CDCBDF80010BDF808003230814264
:1034000015DABDF80C10BDF80420881800EBD07157
:10341000C1F34F012180BDF80810BDF800208818C5
:1034200000EBD071C1F34F0129800120ABE70020F0
:10343000A9E770B504460D4616467D48068004F19E
:103440000D018AB2193988B22B46294605F0EEFEE5
:1034500005F10D0083B2193881B22246204605F0ED
:10346000E5FE6A1C91B2621C90B201F088FB6A1CF6
:1034700091B2621E90B201F082FB6A1E91B2621C90
:1034800090B201F07CFB6A1E91B2621E90B201F014
:1034900076FB06222946204605F048FF70BD70B530
:1034A00004460D461646624806802946204601F02D
:1034B00066FB611C88B2294601F061FB681C81B281
:1034C000204601F05CFB6A1C91B2621C90B201F0D4
:1034D00056FB70BD2DE9F04104465148883800681C
:1034E000002856D12CB15349A1F10A00FFF741FF42
:1034F0003DE05049A1F10A00FFF73BFFB8B34D4949
:103500001639B1F92C0007F021FD07464949163953
:10351000888907F033FD804646481638416A4046A0
:1035200007F040FD0646394607F0B0FB054607F0B8
:10353000EDFC404916398881B1F92E0007F006FDEF
:1035400007463C491639C88A07F018FD80463948B5
:103550001638816A404607F025FD0646394607F0D1
:1035600095FB054607F0D2FC32491639C88231482E
:10357000163890F8200000F0800038BBC0202D499C
:10358000163981F82000084681898182C18AC18369
:103590001CE02848163890F8200000F0800050B158
:1035A0002448163890F8200020F080002149163970
:1035B00081F820000AE000211E4816388182C1836C
:1035C0004FF6FF701B4916398881C8821948163892
:1035D00090F8200000F08000BDE8F08110B515489B
:1035E00016380422416A282006F0CCF81148163813
:1035F0000422816A2C2006F0C5F80E481638808D0A
:1036000081B20222302006F0BDF80A481638C08D7B
:1036100081B20222322006F0B5F8064816380BE0D7
:103620008C01224200002242F4000020F50000201C
:10363000FC000020D600002090F83010342006F066
:1036400079F80A21352006F075F810BD10B535203F
:1036500006F044F804460A2C32D10421282006F052
:10366000A6F8FE49486204212C2006F0A0F8FB4988
:1036700088620221302006F09AF800B2F749888566
:103680000221322006F093F800B2F449C8853420B4
:1036900006F024F8F14981F83000084690F830002F
:1036A00030B19020EE490870D020EE49087005E056
:1036B000D020EB4908709020EA490870012010BD25
:1036C0000020FCE72DE9FC5F04460D4617461E4628
:1036D000DDE90EABDDE90C894FF47840E249088062
:1036E000E2A01021CDE90010E14843880288A02122
:1036F000282005F0AFFFDFA01021CDE90010DC4845
:1037000043880288A021782005F0A4FFDAA01021C8
:10371000CDE90010D64843880288B421282005F05E
:1037200099FFD6A01021CDE90010D1484388028826
:10373000B421782005F08EFFD1A01021CDE9001032
:10374000CB4843880288C821282005F083FFCDA0FC
:103750001021CDE90010C64843880288C82178208E
:1037600005F078FFC8A01021CDE90010C0484388BB
:103770000288DC21282005F06DFFC4A01021CDE9CE
:103780000010BB4843880288DC21782005F062FFE6
:10379000BFA01021CDE90010B54843880288F02170
:1037A000282005F057FF102004232246A021009076
:1037B000402005F0A6FE102004232A46A0210090F8
:1037C000902005F09EFE102004233A46B42100907C
:1037D000402005F096FE102004233246B4210090CC
:1037E000902005F08EFE102004234246C821009050
:1037F000402005F086FE102004234A46C821009090
:10380000902005F07EFE102004235246DC2100901B
:10381000402005F076FE102004235A46DC2100905B
:10382000902005F06EFE102000909148018803233F
:103830006020109A05F065FEBDE8FC9F2DE9F04F71
:103840008BB00024002006904FF6FF7001F0D7FEE9
:103850001F20854908809048006810216423A02219
:10386000CDE900102821084605F0F4FE4FF4784217
:1038700014210846FFF7DDFD0020784981F820007B
:10388000486246E200BF7548416801208847734896
:1038900090F8200000F0C00040287DD10020069064
:1038A0006E4890F8200020F040006C4981F820001C
:1038B0000846808907A921F824006848C08A01EBDE
:1038C00084014880601CC4B2012C06D0022C14D0A4
:1038D000032C25D0042C0FD138E04FF6FF721421B1
:1038E0000846FFF7A6FD62490988143988B24FF4EB
:1038F00078421421FFF79DFDFBE15D4909881439E9
:1039000088B24FF6FF721421FFF793FD58484088A4
:10391000143881B24FF478421420FFF78AFDE8E1B1
:1039200053484088143881B24FF6FF721420FFF7D5
:1039300080FD4F4A5288143A91B24D4A1288143A87
:1039400090B24FF47842FFF774FDD2E10024F3E027
:10395000524911F8241007AA32F821104F4A02EBFD
:103960008402527807AB33F82220881A002801DB42
:10397000014600E041420D46484911F8241007AACB
:1039800002EB81014988454A02EB8402527807AB79
:1039900003EB8202528800E0ACE1881A002801DBC8
:1039A000014600E041420E466D437643A81906F0F9
:1039B000E1FDCDE9020106F0BEFCCDE9040106F00F
:1039C00095FD1FFA80F8354901EB8401897807AA33
:1039D00032F82110314A02EB8402D27807AB33F877
:1039E0002220881A002801DB014600E041420D46F2
:1039F0002A4901EB8401897807AA02EB81014988F1
:103A0000264A02EB8402D27807AB03EB820252888B
:103A1000881A002801DB014600E041420E466D4352
:103A20007643A81906F0A6FDCDE9020106F083FC55
:103A3000CDE9040106F05AFD1FFA80F9484607F067
:103A40009DFA0746404607F099FA8346394607F043
:103A50007FF98246504607F0EDF821E0C0000020D3
:103A6000F4000020F5000020FC00002078313A002E
:103A7000F401002079313A0078323A0079323A0084
:103A800078333A0079333A0078343A0079343A009E
:103A90006661632069733A00F8000020F2B2000802
:103AA0004FF06632CB4BCDE9040106F077FD0FD322
:103AB000504607F0BFF8C84AC84BCDE9040106F0EC
:103AC000A7FE05D3B8F1000F02D0B9F1000F31D134
:103AD0000024C34A5288143A91B2C14A1288143A57
:103AE00090B24FF6FF72FFF7A4FC4FF47842142116
:103AF0000846FFF79EFCBB49504607F053FA834641
:103B000007F004FA87B2BDF82A10BDF82800BDF806
:103B1000262002AB83C30192BDF824000090BDF8BB
:103B20002230BDF82020BDF81E10BDF81C00FFF7A4
:103B3000C9FDA8E6601CC4B2032CFFF609AFBDF8AE
:103B40002010BDF81C20881A07F000FA0746A44987
:103B50000988A1F1280007F0F9F98346394607F0F2
:103B6000F7F8A1494862BDF82010BDF81C2088185C
:103B700007F0ECF903909C48416A039807F012FAA9
:103B800097490590088807F0F9F90490059907F01E
:103B9000D5FA83464FF0804107F0DAF8074607F080
:103BA00099F900B290498885BDF82610BDF81E200D
:103BB000881A07F0CBF9074689494988A1F12800FE
:103BC00007F0C4F98346394607F0C2F8864988628F
:103BD000BDF82610BDF81E20881807F0B7F903902D
:103BE0008148816A039807F0DDF983467C4948885B
:103BF00007F0C4F95946049007F0A0FA4FF080414D
:103C0000059007F0A5F8074607F064F900B2764979
:103C1000C885486A07F05EF9B0F1000B01DB584631
:103C200001E0CBF1000002280ADC6F49886A07F046
:103C300051F9071E01DB384600E07842022839DDE1
:103C40000024674A5288143A91B2654A1288143A9D
:103C500090B24FF6FF72FFF7ECFB4FF4784214215D
:103C60000846FFF7E6FB61A01021CDE900105C4893
:103C7000438802881A21282005F0ECFC5A4890F865
:103C8000300008B9012000E00020574981F83000D9
:103C9000084690F8300030B1902059490870D02083
:103CA0005849087005E0D0205549087090205549C2
:103CB00008702EE01F20544908804FF6FF7001F075
:103CC0009EFC52A01021CDE900104548438802888F
:103CD0006E21232005F0BEFC4FF47A70FEF7E9FC5C
:103CE000FFF77CFC4FF6FF7001F089FC0BB0BDE8DC
:103CF000F08F00BF0A20FEF7DCFC0698401C80B263
:103D000006900698B0F57A7F02DDFFF79FFC01E090
:103D100000BFB7E500BF00BFE8E708B530488088BE
:103D200045F21051884220D1FEF74AFF18B93D48AC
:103D30002D49486004E0FFF726F93B482A494860CE
:103D4000294890F8300040F08000274981F8300081
:103D5000084690F830002249897901F001010843B2
:103D6000214981F83000002008BD01211120FEF713
:103D700057F942F20900ADF8000010208DF8030059
:103D800003208DF8020069462848FDF727FE06202B
:103D9000ADF8000048208DF8030069462348FDF780
:103DA0001DFE11491631A1F10A00FFF7CFFA05F007
:103DB00091FCFFF74BFC08B10020D5E74FF6FF70F0
:103DC00001F01DFCFFF73AFDFFF708FCFFF73EFC92
:103DD0000120C9E76666EE3FCDCCCCCCCCCCF03F21
:103DE000F40100200000C842C00000205450204EC2
:103DF00065656420726561646A75737421000000F2
:103E0000F4000020F5000020FC000020546F7563D2
:103E1000682053637265656E2041646A757374200F
:103E20004F4B2100CB2C000823300008001001402C
:103E300010B504464FF48071FE48FDF77EFE4FF446
:103E40000071FC48FDF779FE2146FB48FDF77CFE3A
:103E50008021F848FDF771FE8021F648FDF76BFEE2
:103E60004FF40071F348FDF766FE10BD10B504462F
:103E70004FF48071EF48FDF75EFE4FF40071ED489E
:103E8000FDF75BFE2146EC48FDF75EFE8021E94828
:103E9000FDF753FE8021E748FDF74DFE4FF400711A
:103EA000E448FDF748FE10BD10B54FF08830E249F8
:103EB0000860091D08600020DF490C310860891581
:103EC000DC48FDF738FE4FF40071DA48FDF735FEA7
:103ED0004021D848FDF731FED848808848F689113E
:103EE000884202D10220FEF7C0FBD348FDF712FE44
:103EF00004464021CF48FDF71EFE4FF40071CD4827
:103F0000FDF719FE4FF03330CB490860091D0860FA
:103F10004FF6FF70C8490C310860204610BD70B5DF
:103F200004460D462046FFF783FF4FF48071C148D9
:103F3000FDF701FE4FF40071BE48FDF7FEFD294676
:103F4000BD48FDF701FE8021BA48FDF7F6FD80214E
:103F5000B848FDF7F0FD4FF40071B648FDF7EBFDF2
:103F600070BD10B504462046FFF762FFFFF79CFFC7
:103F700010BD10B5B1490889FFF75AFF10BD10B543
:103F800004464FF48071AB48FDF7D5FD4FF4007146
:103F9000A848FDF7D2FD2146A748FDF7D5FD8021B1
:103FA000A448FDF7CAFD8021A248FDF7C4FD4FF4E7
:103FB0000071A048FDF7BFFD10BD30B5014601F00E
:103FC0001F04C1F34513CA0AE50205EB4315154466
:103FD000A8B230BD70B504460D469848808849F2B5
:103FE0004131884205D09548808845F21031884299
:103FF00075D192494889FFF71BFF4FF480718D48B6
:10400000FDF799FD4FF400718A48FDF796FD2112E6
:104010008948FDF799FD80218648FDF78EFD8021B6
:104020008448FDF788FD4FF400718248FDF783FD59
:104030004FF480717F48FDF77EFD4FF400717D489D
:10404000FDF77BFDE1B27C48FDF77EFD80217948DC
:10405000FDF773FD80217748FDF76DFD4FF400718A
:104060007448FDF768FD75498889FFF7E1FE4FF454
:1040700080717048FDF75FFD4FF400716D48FDF7EA
:104080005CFD29126C48FDF75FFD80216948FDF752
:1040900054FD80216748FDF74EFD4FF400716548DF
:1040A000FDF749FD4FF480716248FDF744FD4FF480
:1040B00000716048FDF741FDE9B25F48FDF744FD3E
:1040C00080215C48FDF739FD80215A48FDF733FD1A
:1040D0004FF400715748FDF72EFD28E1FFE75748E0
:1040E000808846F6040188427ED1544880790128B0
:1040F00004D152480088401E001B84B24F494889B1
:10410000FFF796FE4FF480714A48FDF714FD4FF417
:1041100000714848FDF711FD21124748FDF714FDD5
:1041200080214448FDF709FD80214248FDF703FD49
:104130004FF400713F48FDF7FEFC4FF480713D489D
:10414000FDF7F9FC4FF400713A48FDF7F6FCE1B2D7
:104150003948FDF7F9FC80213648FDF7EEFC802157
:104160003448FDF7E8FC4FF400713248FDF7E3FCFA
:1041700032498889FFF75CFE4FF480712D48FDF7C6
:10418000DAFC4FF400712B48FDF7D7FC29122A48BE
:10419000FDF7DAFC80212748FDF7CFFC8021254878
:1041A000FDF7C9FC4FF400712248FDF7C4FC4FF441
:1041B00080712048FDF7BFFC4FF400711D48FDF7EA
:1041C000BCFCE9B21C48FDF7BFFC80211948FDF793
:1041D000B4FC80211748FDF7AEFC4FF40071154880
:1041E000FDF7A9FCA3E0FFE71448808845F21051D1
:1041F00088427CD111494889FFF71AFE4FF480713B
:104200000C48FDF798FC4FF400710A48FDF795FC47
:1042100021120948FDF798FC80210648FDF78DFC26
:1042200080210448FDF787FC4FF400710148FDF739
:1042300082FC05E000100140000C0140F401002068
:10424000F8494989491C88B2FFF7F2FD4FF48071A3
:10425000F548FDF770FC4FF40071F348FDF76DFC75
:10426000E1B2F248FDF770FC8021EF48FDF765FCF4
:104270008021ED48FDF75FFC4FF40071EA48FDF73F
:104280005AFCE8498889FFF7D3FD4FF48071E6486E
:10429000FDF751FC4FF40071E348FDF74EFC291285
:1042A000E248FDF751FC8021DF48FDF746FC802104
:1042B000DD48FDF740FC4FF40071DB48FDF73BFCA7
:1042C000D8498989491C88B2FFF7B2FD4FF4807143
:1042D000D548FDF730FC4FF40071D348FDF72DFCB5
:1042E000E9B2D248FDF730FC8021CF4800E00BE076
:1042F000FDF723FC8021CC48FDF71DFC4FF4007135
:10430000C948FDF718FC12E0C6488079012804D19D
:10431000C4480088401E001B84B2C2494889214617
:10432000FFF7FDFDBF4988892946FFF7F8FD70BDFD
:104330002DE9F04105460E46BA480088A84203DD43
:10434000B8484088B04202DC0020BDE8F081314628
:104350002846FFF73FFEB348808849F24131884242
:104360000BD0B048808846F60401884205D0AD489D
:10437000808845F21031884203D12E20FFF758FD86
:104380000DE0A848808845F21051884204D14FF4CE
:104390003850FFF74DFD02E02220FFF749FD4FF0B6
:1043A0008830A2490860091D08604FF6FF709F49D8
:1043B0000C31086089159C48FDF7BDFB4FF4007176
:1043C0009948FDF7BAFB40219748FDF7B6FB01205D
:1043D000FEF74BF940219448FDF7ADFB4021924890
:1043E000FDF7ABFB0120FEF740F99048FDF792FB8B
:1043F000044640218C48FDF79EFB8A48808849F29C
:10440000413188420BD08748808845F2103188427C
:1044100005D08448808845F21051884211D140214E
:104420008148FDF78AFB8148FDF774FB80464021F7
:104430007D48FDF780FBE7B24FF6FF7000EA0727E3
:1044400011E07848808846F6040188420BD140216B
:104450007548FDF772FB40217348FDF76CFB73480C
:10446000FDF758FB04464FF400716F48FDF763FBFE
:104470004FF033306D490860091D08604FF6FF703A
:104480006A490C3108606748808849F225318842C2
:1044900016D06448808844F23551884210D0614873
:1044A0008088091F88420BD05E48808848F68911B1
:1044B000884205D05B4880884BF20551884201D183
:1044C000204642E75748808849F2413188420BD064
:1044D0005448808845F21031884205D05148808880
:1044E00045F21051884207D1E012C002B91240EAE9
:1044F000411040EAE82028E72046FFF75EFD24E768
:1045000010B54848808849F2413188420BD045486F
:10451000808846F60401884205D04248808845F2EA
:104520001031884203D12920FFF782FC0FE03D487B
:10453000808845F21051884204D14FF42450FFF78F
:1045400077FC04E040F273110720FFF7E8FC10BD90
:1045500010B53448808849F2413188420BD0314847
:10456000808846F60401884205D02E48808845F2AE
:104570001031884203D12820FFF75AFC0EE0294869
:10458000808845F21051884204D14FF42050FFF743
:104590004FFC03E000210720FFF7C1FC10BD2DE90F
:1045A000F0410546002400271E48807901281ED1CD
:1045B0001C48808846F60401884218D0082D15D280
:1045C000DFE805F00406080A0C0E101206250DE0BF
:1045D00007250BE0042509E0052507E0012505E096
:1045E000002503E0032501E0022500BF00BF0D48C0
:1045F000808849F24131884211D00A48808846F6C5
:10460000040188420BD00748808845F21031884267
:1046100005D00448808845F2105188427ED1082D8B
:1046200023D205E0F401002000100140000C0140FD
:10463000DFE805F00406090C0F12151800BF14E09E
:1046400044F0800411E044F040040EE044F0C00463
:104650000BE044F0200408E044F0600405E044F07E
:10466000A00402E044F0E00400BF00BFFE488088E0
:1046700045F21051884202D14FF4585700E03627D6
:10468000F948808845F21031884207D0F648808882
:1046900045F21051884201D044F00804F248808865
:1046A00046F60401884201D144F00204214638460E
:1046B000FFF735FC04F0200068B1EB480088EA49B8
:1046C0004988884214DAE84806884088E649088024
:1046D000084646800CE0E4480088E349498888425F
:1046E00006DDE14806884088DF49088008464680A4
:1046F000DD48808845F2105188427CD1DA494889EA
:10470000FFF796FB4FF48071D848FDF714FA4FF489
:104710000071D648FDF711FA002100E0FBE1D44812
:10472000FDF712FA8021D148FDF707FA8021CF4822
:10473000FDF701FA4FF40071CC48FDF7FCF9CA49C6
:104740004989491C88B2FFF773FB4FF48071C74851
:10475000FDF7F1F94FF40071C448FDF7EEF90021BF
:10476000C348FDF7F1F98021C048FDF7E6F9802143
:10477000BE48FDF7E0F94FF40071BC48FDF7DBF9E6
:10478000B9494989891C88B2FFF752FB4FF48071FF
:10479000B648FDF7D0F94FF40071B448FDF7CDF9F4
:1047A000B1480088401EC0F30F21B148FDF7CCF995
:1047B0008021AE48FDF7C1F98021AC48FDF7BBF977
:1047C0004FF40071A948FDF7B6F9A7494989C91CFA
:1047D00088B2FFF72DFB4FF48071A448FDF7ABF9C9
:1047E0004FF40071A148FDF7A8F99F480078401EDA
:1047F000C1B29F4800E098E0FDF7A6F980219B48F0
:10480000FDF79BF980219948FDF795F94FF4007168
:104810009648FDF790F994498889FFF709FB4FF412
:1048200080719248FDF787F94FF400718F48FDF7CA
:1048300084F900218E48FDF787F980218B48FDF728
:104840007CF980218948FDF776F94FF4007187489B
:10485000FDF771F984498989491C88B2FFF7E8FAA4
:104860004FF480718148FDF766F94FF400717F487D
:10487000FDF763F900217E48FDF766F980217B484A
:10488000FDF75BF980217948FDF755F94FF4007188
:104890007648FDF750F974498989891C88B2FFF779
:1048A000C7FA4FF480717148FDF745F94FF4007174
:1048B0006E48FDF742F96C484088401EC0F30F2156
:1048C0006B48FDF741F980216848FDF736F98021F2
:1048D0006648FDF730F94FF400716448FDF72BF995
:1048E00061498989C91C88B2FFF7A2FA4FF4807127
:1048F0005E48FDF720F94FF400715C48FDF71DF9A3
:1049000059488078401EC1B25948FDF71DF98021F1
:104910005648FDF712F980215448FDF70CF94FF481
:1049200000715248FDF707F927E14F494889FFF721
:104930007FFA4FF480714D48FDF7FDF84FF4007198
:104940004A48FDF7FAF800214948FDF7FDF88021B3
:104950004648FDF7F2F880214448FDF7ECF84FF4A3
:1049600000714248FDF7E7F84FF480713F48FDF7CA
:10497000E2F84FF400713D48FDF7DFF800213C48B4
:10498000FDF7E2F880213948FDF7D7F88021374854
:10499000FDF7D1F84FF400713448FDF7CCF84FF42F
:1049A00080713248FDF7C7F84FF400712F48FDF7CA
:1049B000C4F82D480088401EC0F30F212C48FDF795
:1049C000C3F880212948FDF7B8F880212748FDF772
:1049D000B2F84FF400712548FDF7ADF84FF480713F
:1049E0002248FDF7A8F84FF400712048FDF7A5F81C
:1049F0001D480078401EC1B21D48FDF7A5F8802172
:104A00001A48FDF79AF880211848FDF794F84FF4FA
:104A100000711648FDF78FF813498889FFF708FAE7
:104A20004FF480711148FDF786F84FF400710F487C
:104A3000FDF783F800210E48FDF786F880210B482A
:104A4000FDF77BF880210948FDF775F84FF40071F8
:104A50000648FDF770F84FF480710448FDF76BF8D5
:104A60004FF40071014805E0F401002000100140FE
:104A7000000C0140FDF761F80021FE48FDF764F8E5
:104A80008021FD48FDF759F88021FB48FDF753F8D8
:104A90004FF40071F848FDF74EF84FF48071F64876
:104AA000FDF749F84FF40071F348FDF746F8F34875
:104AB0004088401EC0F30F21EE48FDF745F88021E5
:104AC000ED48FDF73AF88021EB48FDF734F84FF454
:104AD0000071E948FDF72FF84FF48071E648FDF7C3
:104AE0002AF84FF40071E448FDF727F8E34880788E
:104AF000401EC1B2DF48FDF727F88021DE48FDF7F0
:104B00001CF88021DC48FDF716F84FF40071DA48F4
:104B1000FDF711F831E0082D1CD2DFE805F004079D
:104B20000A0D0F12151844F0300413E044F010047D
:104B300010E044F020040DE000BF0BE044F0380426
:104B400008E044F0280405E044F0180402E044F0D2
:104B5000080400BF00BFC948808848F68911884210
:104B600004D1112746F24000044302E0032744F435
:104B7000805421463846FFF7D2F9BDE8F08170B580
:104B800004460D4629462046FFF724FAFFF7F1F9BF
:104B90004FF48071B848FCF7CEFF4FF40071B6486F
:104BA000FCF7CBFFB6480188B248FCF7CDFF802167
:104BB000B148FCF7C2FF8021AF48FCF7BCFF4FF4BF
:104BC0000071AD48FCF7B7FF70BD70B504460D46E7
:104BD0001646AA48808849F24131884205D0A74844
:104BE000808845F21031884275D1A4494889FFF781
:104BF0001FF94FF48071A048FCF79DFF4FF400713E
:104C00009D48FCF79AFF21129A48FCF79DFF8021EE
:104C10009948FCF792FF80219748FCF78CFF4FF4EE
:104C200000719548FCF787FF4FF480719248FCF7BC
:104C300082FF4FF400719048FCF77FFFE1B28D488E
:104C4000FCF782FF80218C48FCF777FF80218A489F
:104C5000FCF771FF4FF400718748FCF76CFF874940
:104C60008889FFF7E5F84FF480718348FCF763FF0C
:104C70004FF400718048FCF760FF29127D48FCF773
:104C800063FF80217C48FCF758FF80217A48FCF7BD
:104C900052FF4FF400717848FCF74DFF4FF48071DC
:104CA0007548FCF748FF4FF400717348FCF745FF67
:104CB000E9B27048FCF748FF80216F48FCF73DFFE0
:104CC00080216D48FCF737FF4FF400716A48FCF70C
:104CD00032FF2CE1FFE76948808845F21051884295
:104CE0007ED166494889FFF7A3F84FF48071624886
:104CF000FCF721FF4FF400715F48FCF71EFF211203
:104D00005C48FCF721FF80215B48FCF716FF8021FF
:104D10005948FCF710FF4FF400715748FCF70BFFA0
:104D200056494989491C88B2FFF782F84FF48071CF
:104D30005148FCF700FF4FF400714F48FCF7FDFEAF
:104D4000E1B24C48FCF700FF80214B48FCF7F5FE30
:104D500080214948FCF7EFFE4FF400714648FCF70C
:104D6000EAFE46498889FFF763F84FF480714248AC
:104D7000FCF7E1FE4FF400713F48FCF7DEFE29121C
:104D80003C48FCF7E1FE80213B48FCF7D6FE802141
:104D90003948FCF7D0FE4FF400713748FCF7CBFEE2
:104DA00036498989491C88B2FFF742F84FF480716F
:104DB0003148FCF7C0FE4FF400712F48FCF7BDFEF0
:104DC000E9B22C48FCF7C0FE80212B48FCF7B5FE69
:104DD00080212948FCF7AFFE4FF40071264800E01F
:104DE00002E0FCF7A8FEA2E02448808846F6040111
:104DF00088427CD121488079012804D11F4800884D
:104E0000401E001B84B21D494889FFF711F84FF47A
:104E100080711948FCF78FFE4FF400711648FCF7BB
:104E20008CFE21121348FCF78FFE80211248FCF7FC
:104E300084FE80211048FCF77EFE4FF400710E487E
:104E4000FCF779FE4FF480710B48FCF774FE4FF4C9
:104E500000710948FCF771FEE1B20648FCF774FEE8
:104E600080210548FCF769FE80210348FCF763FEBA
:104E700008E00000000C014000100140F401002097
:104E8000FC0000204FF40071FD48FCF754FEFD4982
:104E90008889FEF7CDFF4FF48071F948FCF74BFE8F
:104EA0004FF40071F648FCF748FE2912F648FCF76B
:104EB0004BFE8021F248FCF740FE8021F048FCF7D1
:104EC0003AFE4FF40071EE48FCF735FE4FF4807166
:104ED000EB48FCF730FE4FF40071E948FCF72DFE7B
:104EE000E9B2E948FCF730FE8021E54800E00BE03C
:104EF000FCF723FE8021E248FCF71DFE4FF4007111
:104F0000DF48FCF718FE12E0DE488079012804D162
:104F1000DC480088401E001B84B2DA4948892146DB
:104F2000FEF7FDFFD74988892946FEF7F8FF4FF4C1
:104F30008071D348FCF701FE4FF40071D048FCF7B4
:104F4000FCFDD0480189D048FCF7FEFD8021CC480B
:104F5000FCF7F3FD8021CA48FCF7EDFD4FF400712A
:104F6000C748FCF7E8FD4FF48071C548FCF7E3FD46
:104F70004FF40071C248FCF7E0FD3146C248FCF72F
:104F8000E3FD8021BE48FCF7D8FD8021BC48FCF73A
:104F9000D2FD4FF40071BA48FCF7CDFD70BD10B5DD
:104FA0000446002C60D1B7498871F02008804FF486
:104FB000A07048800846808849F2413188420BD071
:104FC000B048808846F60401884205D0AD48808804
:104FD00045F2103188421AD12C20AA4908812A2092
:104FE00048812B2088810846808846F60401884243
:104FF00005D0A448808845F21031884206D14FF48C
:10500000A070A04908804FF4F070488095E09D485A
:10501000808848F68911884207D122209949088161
:105020004E2048814F20888187E09648808845F24D
:105030001051884210D14FF43050924908814FF4FA
:10504000285048814FF42C5088814FF4F07008802C
:105050004FF44870488070E022208A49088120205F
:1050600048812120888168E00120864988714FF4B9
:10507000A0700880F02048800846808849F24131BD
:10508000884205D07F48808845F21031884207D198
:105090002C207C4908812A2048812B20888139E0F6
:1050A0007848808846F60401884207D12C2075494B
:1050B00008812B2048812A2088812BE07148808834
:1050C00048F68911884207D122206E4908814F2075
:1050D00048814E2088811DE06A48808845F2105141
:1050E000884210D14FF43050664908814FF428505F
:1050F00048814FF42C5088814FF4487008804FF459
:10510000F070488006E022205E4908812120488115
:10511000202088815B48808846F60401884205D0BB
:105120005848808845F21031884206D14FF4F0701B
:10513000544908804FF4A07048800020FFF72FFAF0
:1051400010BD2DE9FF5F04460D4616461F46A01907
:10515000401E86B2E819401E87B24A48808849F24C
:10516000413188420BD04748808845F2103188424F
:1051700005D04448808846F6040188427ED14149E2
:105180004889FEF755FE4FF480713D48FCF7D3FC8B
:105190004FF400713A48FCF7D0FC21123A48FCF772
:1051A000D3FC80213648FCF7C8FC80213448FCF74A
:1051B000C2FC4FF400713248FCF7BDFC4FF4807123
:1051C0002F48FCF7B8FC4FF400712D48FCF7B5FCF4
:1051D000E1B22D48FCF7B8FC80212948FCF7ADFC72
:1051E00080212748FCF7A7FC4FF400712448FCF706
:1051F000A2FC4FF480712248FCF79DFC4FF4007133
:105200001F48FCF79AFC31121F48FCF79DFC8021D7
:105210001B48FCF792FC80211948FCF78CFC4FF4EA
:1052200000711748FCF787FC4FF480711448FCF7B5
:1052300082FC4FF400711248FCF77FFCF1B2124877
:10524000FCF782FC80210E48FCF777FC80210C489B
:10525000FCF771FC4FF400710948FCF76CFC09493C
:105260008889FEF7E5FD4FF480710548FCF763FC83
:105270004FF400710248FCF760FC07E069E00000B1
:1052800000100140F4010020000C01402912FE48EA
:10529000FCF75AFC8021FD48FCF74FFC8021FB48BD
:1052A000FCF749FC4FF40071F848FCF744FC4FF45C
:1052B0008071F648FCF73FFC4FF40071F348FCF7AF
:1052C0003CFCE9B2F048FCF73FFC8021EF48FCF7DA
:1052D00034FC8021ED48FCF72EFC4FF40071EB48C4
:1052E000FCF729FC4FF48071E848FCF724FC4FF4EC
:1052F0000071E648FCF721FC3912E348FCF724FC76
:105300008021E248FCF719FC8021E048FCF713FCFF
:105310004FF40071DD48FCF70EFC4FF48071DB4860
:10532000FCF709FC4FF40071D848FCF706FCF9B211
:10533000D548FCF709FC8021D448FCF7FEFB80210E
:10534000D248FCF7F8FB4FF40071D048FCF7F3FBB0
:1053500053E1CF48808845F2105188427DD1CC4935
:105360004889FEF765FD4FF48071C848FCF7E3FB00
:105370004FF40071C548FCF7E0FB2112C248FCF76E
:10538000E3FB8021C148FCF7D8FB8021BF48FCF734
:10539000D2FB4FF40071BD48FCF7CDFBBC494989F5
:1053A000491C88B2FEF744FD4FF48071B748FCF702
:1053B000C2FB4FF40071B548FCF7BFFBE1B2B24845
:1053C000FCF7C2FB8021B148FCF7B7FB8021AF4856
:1053D000FCF7B1FB4FF40071AC48FCF7ACFBAC49F7
:1053E0004989891C88B2FEF723FD4FF48071A748D4
:1053F000FCF7A1FB4FF40071A448FCF79EFB3112AF
:10540000A148FCF7A1FB8021A048FCF796FB802176
:105410009E48FCF790FB4FF400719C48FCF78BFB17
:105420009B494989C91C88B2FEF702FD4FF480717F
:105430009648FCF780FB4FF400719448FCF77DFB25
:10544000F1B29148FCF780FB80219048FCF775FB96
:1054500080218E48FCF76FFB00E087E04FF400717D
:105460008A48FCF768FB8A498889FEF7E1FC4FF41B
:1054700080718648FCF75FFB4FF400718348FCF7AE
:105480005CFB29128048FCF75FFB80217F48FCF71A
:1054900054FB80217D48FCF74EFB4FF400717B48A4
:1054A000FCF749FB7A498989491C88B2FEF7C0FCA0
:1054B0004FF480717548FCF73EFB4FF40071734860
:1054C000FCF73BFBE9B27048FCF73EFB80216F48DC
:1054D000FCF733FB80216D48FCF72DFB4FF4007186
:1054E0006A48FCF728FB6A498989891C88B2FEF75B
:1054F0009FFC4FF480716548FCF71DFB4FF4007171
:105500006248FCF71AFB39125F48FCF71DFB80214B
:105510005E48FCF712FB80215C48FCF70CFB4FF463
:1055200000715A48FCF707FB59498989C91C88B2A0
:10553000FEF77EFC4FF480715448FCF7FCFA4FF400
:1055400000715248FCF7F9FAF9B24F48FCF7FCFA3F
:1055500080214E48FCF7F1FA80214C48FCF7EBFA29
:105560004FF400714948FCF7E6FA46E04848807974
:1055700001280ED1A846B94645480088801B401E28
:1055800080B2009042480088001B401E1FFA80FB3A
:1055900003E0A046B1460095BB463D48808848F6EA
:1055A000891188420DD14FF0440A4420039048EA03
:1055B00009201FFA80F8C14645200290462001903C
:1055C00007E04FF0500A51200390522002905320E0
:1055D000019041465046FEF7A2FC49460398FEF76B
:1055E0009EFC00990298FEF79AFC59460198FEF736
:1055F00096FC29462046FEF7EDFCBDE8FF9F70B5FE
:105600000446002622480588408845432048808873
:1056100046F60401884216D11D488079012812D12E
:1056200000201B4988712A2048812B208881002175
:105630000846FEF7CFFC0120154988712B204881D0
:105640002A20888103E000210846FEF7C3FCFEF70C
:1056500090FC002622E04FF480710C48FCF76BFAB6
:105660004FF400710948FCF768FA21460648FCF738
:105670006BFA80210548FCF760FA80210348FCF7AB
:105680005AFA4FF4007105E0000C0140001001408F
:10569000F4010020FE48FCF74EFA761CAE42DAD345
:1056A00070BD08B501211920FCF7BAFC0121F948A9
:1056B000FCF765FA4FF4F860ADF8000010208DF8A3
:1056C000030003208DF802006946F148FCF786F9D3
:1056D0004FF4F861EE48FCF72EFA4FF6FF70ADF884
:1056E00000006946EC48FCF779F94FF6FF71EA488B
:1056F000FCF721FA3220FCF7DCFF01210020FEF745
:105700000EFC3220FCF7D5FF0020FEF72AFCE3490F
:10571000888008468088FF280ADB084680884FF684
:10572000FF71884204D0DD488088B0F5134F7CD1EA
:10573000D320FEF77DFBFEF7B7FBFEF7B5FBFEF7C8
:10574000B3FBD6498880084680884FF6FF7101EA8E
:105750000020D2498880FEF7A7FBD04989880843FA
:10576000CE4988800846808849F2413188426CD011
:10577000BF20FEF75DFBFEF797FBFEF795FBFEF7FC
:1057800093FBFEF791FBC5498880084680884FF659
:10579000FF7101EA0020C1498880FEF785FBBF49FF
:1057A00089880843BD4988800846808846F60401F8
:1057B00088424AD0D420FEF73BFBFEF775FBFEF78C
:1057C00073FBFEF771FBB5498880084680884FF669
:1057D000FF7101EA0020B1498880FEF765FBAF49FF
:1057E00089880843AD4988800846808845F2103191
:1057F00088422AD04FF45A40FEF71AFBFEF754FBBA
:105800004FF45B40FEF714FBFEF74EFBA349888084
:10581000084680884FF6FF7101EA00209F49888082
:105820004FF45C40FEF704FB00E00EE0FEF73CFBAB
:105830009A49898808439949888008468088B0F544
:10584000004F02D145F2105088809448818894A07E
:1058500004F066FB9148808849F2413188427CD14E
:10586000CF20FEF7E5FA0020FEF700FBC120FEF78F
:10587000FDFA3020FEF7FAFAED20FEF7D9FA64209F
:10588000FEF7F4FA0320FEF7F1FA1220FEF7EEFA23
:105890008120FEF7EBFAE820FEF7CAFA8520FEF732
:1058A000E5FA1020FEF7E2FA7A20FEF7DFFACB20C5
:1058B000FEF7BEFA3920FEF7D9FA2C20FEF7D6FA09
:1058C0000020FEF7D3FA3420FEF7D0FA0220FEF7CC
:1058D000CDFAF720FEF7ACFA2020FEF7C7FAEA204F
:1058E000FEF7A6FA0020FEF7C1FA0020FEF7BEFA86
:1058F000C020FEF79DFA1B20FEF7B8FAC120FEF784
:1059000097FA0120FEF7B2FAC520FEF791FA30208F
:10591000FEF7ACFA3020FEF7A9FAC720FEF788FAA6
:10592000B720FEF7A3FA3620FEF782FA4820FEF7EA
:105930009DFA3A20FEF77CFA5520FEF797FAB1203F
:10594000FEF776FA0020FEF791FA1A20FEF78EFA9B
:10595000B620FEF76DFA0A2000E0A9E0FEF786FA0D
:10596000A220FEF783FAF220FEF762FA0020FEF78B
:105970007DFA2620FEF75CFA0120FEF777FAE02098
:10598000FEF756FA0F20FEF771FA2A20FEF76EFA9C
:105990002820FEF76BFA0820FEF768FA0E20FEF7C3
:1059A00065FA0820FEF762FA5420FEF75FFAA92094
:1059B000FEF75CFA4320FEF759FA0A20FEF756FA82
:1059C0000F20FEF753FA0020FEF750FA0020FEF7F2
:1059D0004DFA0020FEF74AFA0020FEF747FAE120D0
:1059E000FEF726FA0020FEF741FA1520FEF73EFAF0
:1059F0001720FEF73BFA0720FEF738FA1120FEF7D2
:105A000035FA0620FEF732FA2B20FEF72FFA562041
:105A1000FEF72CFA3C20FEF729FA0520FEF726FABD
:105A20001020FEF723FA0F20FEF720FA3F20FEF7A2
:105A30001DFA3F20FEF71AFA0F20FEF717FA2B2067
:105A4000FEF7F6F90020FEF711FA0020FEF70EFA35
:105A50000120FEF70BFA3F20FEF708FA2A20FEF796
:105A6000E7F90020FEF702FA0020FEF7FFF9002018
:105A7000FEF7FCF9EF20FEF7F9F91120FEF7D8F94F
:105A80007820FCF716FE2920FEF7D2F903F00CBBB4
:105A90000010014000023000000C0140F401002021
:105AA000204C43442049443A25780D0A0000000068
:105AB000FE48808846F6040188427CD11120FEF71A
:105AC000B7F91420FCF7F5FDD020FEF7B1F9072057
:105AD000FEF7CCF94220FEF7C9F91D20FEF7C6F902
